{
  "contractName": "Item",
  "abi": [
    {
      "inputs": [
        {
          "internalType": "contract ItemManager",
          "name": "parentContract",
          "type": "address"
        },
        {
          "internalType": "uint256",
          "name": "priceInWei",
          "type": "uint256"
        },
        {
          "internalType": "uint256",
          "name": "index",
          "type": "uint256"
        }
      ],
      "stateMutability": "nonpayable",
      "type": "constructor"
    },
    {
      "stateMutability": "nonpayable",
      "type": "fallback"
    },
    {
      "inputs": [],
      "name": "_index",
      "outputs": [
        {
          "internalType": "uint256",
          "name": "",
          "type": "uint256"
        }
      ],
      "stateMutability": "view",
      "type": "function"
    },
    {
      "inputs": [],
      "name": "_paidInWei",
      "outputs": [
        {
          "internalType": "uint256",
          "name": "",
          "type": "uint256"
        }
      ],
      "stateMutability": "view",
      "type": "function"
    },
    {
      "inputs": [],
      "name": "_priceInWei",
      "outputs": [
        {
          "internalType": "uint256",
          "name": "",
          "type": "uint256"
        }
      ],
      "stateMutability": "view",
      "type": "function"
    },
    {
      "stateMutability": "payable",
      "type": "receive"
    }
  ],
  "bytecode": "0x608060405234801561001057600080fd5b506040516104ad3803806104ad8339818101604052606081101561003357600080fd5b8101908080519060200190929190805190602001909291908051906020019092919050505082600360006101000a81548173ffffffffffffffffffffffffffffffffffffffff021916908373ffffffffffffffffffffffffffffffffffffffff16021790555081600181905550806000819055505050506103f4806100b96000396000f3fe6080604052600436106100385760003560e01c8063018610801461032b578063a6937a4f14610356578063babb3bcd146103815761031c565b3661031c5734600154146100b4576040517f08c379a000000000000000000000000000000000000000000000000000000000815260040180806020018281038252601b8152602001807f4f6e6c792066756c6c207061796d656e7473206163636570746564000000000081525060200191505060405180910390fd5b60006002541461012c576040517f08c379a00000000000000000000000000000000000000000000000000000000081526004018080602001828103825260158152602001807f4974656d20616c7265616479207061696420666f72000000000000000000000081525060200191505060405180910390fd5b346002600082825401925050819055506000600360009054906101000a900473ffffffffffffffffffffffffffffffffffffffff1673ffffffffffffffffffffffffffffffffffffffff1634600054604051602401808281526020019150506040516020818303038152906040527f800fb83f000000000000000000000000000000000000000000000000000000007bffffffffffffffffffffffffffffffffffffffffffffffffffffffff19166020820180517bffffffffffffffffffffffffffffffffffffffffffffffffffffffff83818316178352505050506040518082805190602001908083835b6020831061023b5780518252602082019150602081019050602083039250610218565b6001836020036101000a03801982511681845116808217855250505050505090500191505060006040518083038185875af1925050503d806000811461029d576040519150601f19603f3d011682016040523d82523d6000602084013e6102a2565b606091505b5050905080610319576040517f08c379a000000000000000000000000000000000000000000000000000000000815260040180806020018281038252600f8152602001807f5061796d656e74206661696c65642e000000000000000000000000000000000081525060200191505060405180910390fd5b50005b34801561032857600080fd5b50005b34801561033757600080fd5b506103406103ac565b6040518082815260200191505060405180910390f35b34801561036257600080fd5b5061036b6103b2565b6040518082815260200191505060405180910390f35b34801561038d57600080fd5b506103966103b8565b6040518082815260200191505060405180910390f35b60005481565b60025481565b6001548156fea264697066735822122066806e6ea589daf63db604c18c0b78d4f682d92fae8baa2966e303c87eae6e4a64736f6c634300060c0033",
  "source": "// SPDX-License-Identifier: MIT\r\n\r\npragma solidity ^0.6.0;\r\n\r\nimport \"./ItemManager.sol\";\r\n\r\ncontract Item {\r\n    \r\n    uint public _index;\r\n    uint public _priceInWei;\r\n    uint public _paidInWei;\r\n    \r\n    ItemManager _parentContract;\r\n    \r\n    constructor(ItemManager parentContract, uint priceInWei, uint index) public {\r\n        _parentContract=parentContract;\r\n        _priceInWei=priceInWei;\r\n        _index=index;\r\n    }\r\n    \r\n    \r\n    receive() external payable {\r\n    require(_priceInWei == msg.value, \"Only full payments accepted\");\r\n    require(_paidInWei == 0 , \"Item already paid for\");\r\n    _paidInWei += msg.value;    \r\n    (bool success, ) = address( _parentContract).call{value:msg.value}(abi.encodeWithSignature(\"triggerPayment(uint256)\", _index));\r\n    require(success, \"Payment failed.\");\r\n    }\r\n    \r\n    fallback() external {\r\n        \r\n    }\r\n    \r\n}",
  "sourcePath": "/home/srinathln7/Desktop/ethereum_dev/dev/supplychain-app/s06-eventTrigger/contracts/Item.sol",
  "compiler": {
    "name": "solc",
    "version": "0.6.12+commit.27d51765.Emscripten.clang"
  },
  "schemaVersion": "3.0.20",
  "updatedAt": "2021-07-07T13:26:06.081Z",
  "devdoc": {
    "kind": "dev",
    "methods": {},
    "version": 1
  },
  "userdoc": {
    "kind": "user",
    "methods": {},
    "version": 1
  }
}