{
  "contractName": "ItemManager",
  "abi": [
    {
      "anonymous": false,
      "inputs": [
        {
          "indexed": false,
          "internalType": "uint256",
          "name": "_index",
          "type": "uint256"
        },
        {
          "indexed": false,
          "internalType": "uint256",
          "name": "_step",
          "type": "uint256"
        },
        {
          "indexed": false,
          "internalType": "address",
          "name": "_address",
          "type": "address"
        }
      ],
      "name": "supplychainEvent",
      "type": "event"
    },
    {
      "inputs": [],
      "name": "_index",
      "outputs": [
        {
          "internalType": "uint256",
          "name": "",
          "type": "uint256"
        }
      ],
      "stateMutability": "view",
      "type": "function",
      "constant": true
    },
    {
      "inputs": [],
      "name": "_owner",
      "outputs": [
        {
          "internalType": "address",
          "name": "",
          "type": "address"
        }
      ],
      "stateMutability": "view",
      "type": "function",
      "constant": true
    },
    {
      "inputs": [],
      "name": "isOwner",
      "outputs": [
        {
          "internalType": "bool",
          "name": "",
          "type": "bool"
        }
      ],
      "stateMutability": "view",
      "type": "function",
      "constant": true
    },
    {
      "inputs": [
        {
          "internalType": "uint256",
          "name": "",
          "type": "uint256"
        }
      ],
      "name": "itemMapping",
      "outputs": [
        {
          "internalType": "contract Item",
          "name": "_item",
          "type": "address"
        },
        {
          "internalType": "string",
          "name": "_identifier",
          "type": "string"
        },
        {
          "internalType": "uint256",
          "name": "_priceInWei",
          "type": "uint256"
        },
        {
          "internalType": "enum ItemManager.status",
          "name": "_status",
          "type": "uint8"
        }
      ],
      "stateMutability": "view",
      "type": "function",
      "constant": true
    },
    {
      "inputs": [
        {
          "internalType": "string",
          "name": "_identifier",
          "type": "string"
        },
        {
          "internalType": "uint256",
          "name": "_priceInWei",
          "type": "uint256"
        }
      ],
      "name": "createItem",
      "outputs": [],
      "stateMutability": "nonpayable",
      "type": "function"
    },
    {
      "inputs": [
        {
          "internalType": "uint256",
          "name": "_itemIndex",
          "type": "uint256"
        }
      ],
      "name": "triggerPayment",
      "outputs": [],
      "stateMutability": "payable",
      "type": "function",
      "payable": true
    },
    {
      "inputs": [
        {
          "internalType": "uint256",
          "name": "_itemIndex",
          "type": "uint256"
        }
      ],
      "name": "triggerDelivery",
      "outputs": [],
      "stateMutability": "nonpayable",
      "type": "function"
    }
  ],
  "bytecode": "0x608060405234801561001057600080fd5b50336000806101000a81548173ffffffffffffffffffffffffffffffffffffffff021916908373ffffffffffffffffffffffffffffffffffffffff1602179055506110f8806100606000396000f3fe6080604052600436106100705760003560e01c80638c5517421161004e5780638c551742146101b85780638f32d59b1461028a578063b2bdfa7b146102b7578063cd31831e146102f857610070565b80630186108014610075578063661fcb65146100a0578063800fb83f1461018a575b600080fd5b34801561008157600080fd5b5061008a610333565b6040518082815260200191505060405180910390f35b3480156100ac57600080fd5b506100d9600480360360208110156100c357600080fd5b8101908080359060200190929190505050610339565b604051808573ffffffffffffffffffffffffffffffffffffffff1681526020018060200184815260200183600281111561010f57fe5b8152602001828103825285818151815260200191508051906020019080838360005b8381101561014c578082015181840152602081019050610131565b50505050905090810190601f1680156101795780820380516001836020036101000a031916815260200191505b509550505050505060405180910390f35b6101b6600480360360208110156101a057600080fd5b810190808035906020019092919050505061042e565b005b3480156101c457600080fd5b50610288600480360360408110156101db57600080fd5b81019080803590602001906401000000008111156101f857600080fd5b82018360208201111561020a57600080fd5b8035906020019184600183028401116401000000008311171561022c57600080fd5b91908080601f016020809104026020016040519081016040528093929190818152602001838380828437600081840152601f19601f82011690508083019250505050505050919291929080359060200190929190505050610663565b005b34801561029657600080fd5b5061029f6108be565b60405180821515815260200191505060405180910390f35b3480156102c357600080fd5b506102cc610915565b604051808273ffffffffffffffffffffffffffffffffffffffff16815260200191505060405180910390f35b34801561030457600080fd5b506103316004803603602081101561031b57600080fd5b8101908080359060200190929190505050610939565b005b60025481565b60016020528060005260406000206000915090508060000160009054906101000a900473ffffffffffffffffffffffffffffffffffffffff1690806001018054600181600116156101000203166002900480601f01602080910402602001604051908101604052809291908181526020018280546001816001161561010002031660029004801561040b5780601f106103e05761010080835404028352916020019161040b565b820191906000526020600020905b8154815290600101906020018083116103ee57829003601f168201915b5050505050908060020154908060030160009054906101000a900460ff16905084565b346001600083815260200190815260200160002060020154146104b9576040517f08c379a000000000000000000000000000000000000000000000000000000000815260040180806020018281038252601c8152602001807f4f6e6c792066756c6c207061796d656e74732061636365707465642e0000000081525060200191505060405180910390fd5b600060028111156104c657fe5b6001600083815260200190815260200160002060030160009054906101000a900460ff1660028111156104f557fe5b14610568576040517f08c379a00000000000000000000000000000000000000000000000000000000081526004018080602001828103825260158152602001807f4974656d206e6f742079657420637265617465642e000000000000000000000081525060200191505060405180910390fd5b600180600083815260200190815260200160002060030160006101000a81548160ff0219169083600281111561059a57fe5b02179055507f861b418f6c6589155bcc4285fe197996fa87c21cb68e226c1c5fb1ae8f271bcb816001600084815260200190815260200160002060030160009054906101000a900460ff1660028111156105f057fe5b6001600085815260200190815260200160002060000160009054906101000a900473ffffffffffffffffffffffffffffffffffffffff16604051808481526020018381526020018273ffffffffffffffffffffffffffffffffffffffff168152602001935050505060405180910390a150565b61066b6108be565b6106dd576040517f08c379a00000000000000000000000000000000000000000000000000000000081526004018080602001828103825260208152602001807f4f776e61626c653a2063616c6c6572206973206e6f7420746865206f776e657281525060200191505060405180910390fd5b600030826002546040516106f090610b41565b808473ffffffffffffffffffffffffffffffffffffffff1681526020018381526020018281526020019350505050604051809103906000f08015801561073a573d6000803e3d6000fd5b5090508060016000600254815260200190815260200160002060000160006101000a81548173ffffffffffffffffffffffffffffffffffffffff021916908373ffffffffffffffffffffffffffffffffffffffff1602179055508260016000600254815260200190815260200160002060010190805190602001906107c0929190610b4e565b508160016000600254815260200190815260200160002060020181905550600060016000600254815260200190815260200160002060030160006101000a81548160ff0219169083600281111561081357fe5b02179055507f861b418f6c6589155bcc4285fe197996fa87c21cb68e226c1c5fb1ae8f271bcb60025460016000600254815260200190815260200160002060030160009054906101000a900460ff16600281111561086d57fe5b83604051808481526020018381526020018273ffffffffffffffffffffffffffffffffffffffff168152602001935050505060405180910390a1600260008154809291906001019190505550505050565b60008060009054906101000a900473ffffffffffffffffffffffffffffffffffffffff1673ffffffffffffffffffffffffffffffffffffffff163373ffffffffffffffffffffffffffffffffffffffff1614905090565b60008054906101000a900473ffffffffffffffffffffffffffffffffffffffff1681565b6109416108be565b6109b3576040517f08c379a00000000000000000000000000000000000000000000000000000000081526004018080602001828103825260208152602001807f4f776e61626c653a2063616c6c6572206973206e6f7420746865206f776e657281525060200191505060405180910390fd5b600160028111156109c057fe5b6001600083815260200190815260200160002060030160009054906101000a900460ff1660028111156109ef57fe5b14610a45576040517f08c379a000000000000000000000000000000000000000000000000000000000815260040180806020018281038252602a815260200180611099602a913960400191505060405180910390fd5b60026001600083815260200190815260200160002060030160006101000a81548160ff02191690836002811115610a7857fe5b02179055507f861b418f6c6589155bcc4285fe197996fa87c21cb68e226c1c5fb1ae8f271bcb816001600084815260200190815260200160002060030160009054906101000a900460ff166002811115610ace57fe5b6001600085815260200190815260200160002060000160009054906101000a900473ffffffffffffffffffffffffffffffffffffffff16604051808481526020018381526020018273ffffffffffffffffffffffffffffffffffffffff168152602001935050505060405180910390a150565b6104ad80610bec83390190565b828054600181600116156101000203166002900490600052602060002090601f016020900481019282601f10610b8f57805160ff1916838001178555610bbd565b82800160010185558215610bbd579182015b82811115610bbc578251825591602001919060010190610ba1565b5b509050610bca9190610bce565b5090565b5b80821115610be7576000816000905550600101610bcf565b509056fe608060405234801561001057600080fd5b506040516104ad3803806104ad8339818101604052606081101561003357600080fd5b8101908080519060200190929190805190602001909291908051906020019092919050505082600360006101000a81548173ffffffffffffffffffffffffffffffffffffffff021916908373ffffffffffffffffffffffffffffffffffffffff16021790555081600181905550806000819055505050506103f4806100b96000396000f3fe6080604052600436106100385760003560e01c8063018610801461032b578063a6937a4f14610356578063babb3bcd146103815761031c565b3661031c5734600154146100b4576040517f08c379a000000000000000000000000000000000000000000000000000000000815260040180806020018281038252601b8152602001807f4f6e6c792066756c6c207061796d656e7473206163636570746564000000000081525060200191505060405180910390fd5b60006002541461012c576040517f08c379a00000000000000000000000000000000000000000000000000000000081526004018080602001828103825260158152602001807f4974656d20616c7265616479207061696420666f72000000000000000000000081525060200191505060405180910390fd5b346002600082825401925050819055506000600360009054906101000a900473ffffffffffffffffffffffffffffffffffffffff1673ffffffffffffffffffffffffffffffffffffffff1634600054604051602401808281526020019150506040516020818303038152906040527f800fb83f000000000000000000000000000000000000000000000000000000007bffffffffffffffffffffffffffffffffffffffffffffffffffffffff19166020820180517bffffffffffffffffffffffffffffffffffffffffffffffffffffffff83818316178352505050506040518082805190602001908083835b6020831061023b5780518252602082019150602081019050602083039250610218565b6001836020036101000a03801982511681845116808217855250505050505090500191505060006040518083038185875af1925050503d806000811461029d576040519150601f19603f3d011682016040523d82523d6000602084013e6102a2565b606091505b5050905080610319576040517f08c379a000000000000000000000000000000000000000000000000000000000815260040180806020018281038252600f8152602001807f5061796d656e74206661696c65642e000000000000000000000000000000000081525060200191505060405180910390fd5b50005b34801561032857600080fd5b50005b34801561033757600080fd5b506103406103ac565b6040518082815260200191505060405180910390f35b34801561036257600080fd5b5061036b6103b2565b6040518082815260200191505060405180910390f35b34801561038d57600080fd5b506103966103b8565b6040518082815260200191505060405180910390f35b60005481565b60025481565b6001548156fea264697066735822122066806e6ea589daf63db604c18c0b78d4f682d92fae8baa2966e303c87eae6e4a64736f6c634300060c00334974656d206e6565647320746f206265207061696420666f72206265666f7265207368697070696e672ea2646970667358221220cb58395d50318f217a2a9ad5903495e3f5a3f2901e6984c0ef7b4403aa14317664736f6c634300060c0033",
  "source": "// SPDX-License-Identifier: MIT\r\n\r\npragma solidity ^0.6.0;\r\n\r\nimport \"./Ownable.sol\";\r\nimport \"./Item.sol\";\r\n\r\ncontract ItemManager is Ownable {\r\n    \r\n    enum status{Created, Paid, Delivered}    \r\n    \r\n    struct S_Item {\r\n        Item _item;\r\n        string _identifier;\r\n        uint _priceInWei;\r\n        status _status;\r\n    }\r\n    \r\n    mapping(uint => S_Item) public itemMapping;\r\n    uint public _index;\r\n    \r\n    event supplychainEvent(uint _index, uint _step, address _address);\r\n    \r\n    function createItem(string memory _identifier, uint _priceInWei) public onlyOwner {\r\n        Item _item=new Item(this, _priceInWei,_index);\r\n        itemMapping[_index]._item=_item;\r\n        itemMapping[_index]._identifier=_identifier;\r\n        itemMapping[_index]._priceInWei=_priceInWei;\r\n        itemMapping[_index]._status=status.Created;\r\n        emit supplychainEvent(_index, uint(itemMapping[_index]._status),address(_item));\r\n        _index++;\r\n    }\r\n    \r\n    \r\n    function triggerPayment(uint _itemIndex) public payable {\r\n        require(itemMapping[_itemIndex]._priceInWei == msg.value, \"Only full payments accepted.\");\r\n        require(itemMapping[_itemIndex]._status == status.Created, \"Item not yet created.\");\r\n        itemMapping[_itemIndex]._status=status.Paid;\r\n        emit supplychainEvent(_itemIndex, uint(itemMapping[_itemIndex]._status),address(itemMapping[_itemIndex]._item));\r\n    }\r\n    \r\n    \r\n    function triggerDelivery(uint _itemIndex) public onlyOwner{\r\n        require(itemMapping[_itemIndex]._status == status.Paid, \"Item needs to be paid for before shipping.\");\r\n        itemMapping[_itemIndex]._status=status.Delivered;\r\n        emit supplychainEvent(_itemIndex, uint(itemMapping[_itemIndex]._status),address(itemMapping[_itemIndex]._item));        \r\n    }\r\n    \r\n}",
  "sourcePath": "/home/srinathln7/Desktop/ethereum_dev/dev/supplychain-app/s06-eventTrigger/contracts/ItemManager.sol",
  "compiler": {
    "name": "solc",
    "version": "0.6.12+commit.27d51765.Emscripten.clang"
  },
  "schemaVersion": "3.0.20",
  "updatedAt": "2021-07-07T13:26:08.567Z",
  "networkType": "ethereum",
  "devdoc": {
    "kind": "dev",
    "methods": {
      "isOwner()": {
        "details": "Returns true if the caller is the current owner."
      }
    },
    "version": 1
  },
  "userdoc": {
    "kind": "user",
    "methods": {},
    "version": 1
  }
}